{
  "contractName": "MyContract",
  "abi": [
    {
      "anonymous": false,
      "inputs": [
        {
          "indexed": false,
          "internalType": "uint256",
          "name": "id",
          "type": "uint256"
        },
        {
          "indexed": false,
          "internalType": "string",
          "name": "title",
          "type": "string"
        },
        {
          "indexed": false,
          "internalType": "address",
          "name": "owner",
          "type": "address"
        },
        {
          "indexed": false,
          "internalType": "uint256",
          "name": "timestamp",
          "type": "uint256"
        }
      ],
      "name": "RecordAdded",
      "type": "event"
    },
    {
      "inputs": [
        {
          "internalType": "string",
          "name": "_title",
          "type": "string"
        },
        {
          "internalType": "string",
          "name": "_content",
          "type": "string"
        }
      ],
      "name": "addRecord",
      "outputs": [],
      "stateMutability": "nonpayable",
      "type": "function"
    },
    {
      "inputs": [
        {
          "internalType": "uint256",
          "name": "_id",
          "type": "uint256"
        }
      ],
      "name": "getRecord",
      "outputs": [
        {
          "internalType": "uint256",
          "name": "",
          "type": "uint256"
        },
        {
          "internalType": "string",
          "name": "",
          "type": "string"
        },
        {
          "internalType": "string",
          "name": "",
          "type": "string"
        },
        {
          "internalType": "address",
          "name": "",
          "type": "address"
        },
        {
          "internalType": "uint256",
          "name": "",
          "type": "uint256"
        }
      ],
      "stateMutability": "view",
      "type": "function",
      "constant": true
    },
    {
      "inputs": [],
      "name": "getRecordCount",
      "outputs": [
        {
          "internalType": "uint256",
          "name": "",
          "type": "uint256"
        }
      ],
      "stateMutability": "view",
      "type": "function",
      "constant": true
    }
  ],
  "bytecode": "0x608060405234801561001057600080fd5b506109c4806100206000396000f3fe608060405234801561001057600080fd5b50600436106100415760003560e01c806303e9e60914610046578063c95962481461007a578063ca267f2814610096575b600080fd5b610060600480360381019061005b91906105bb565b6100b4565b604051610071959493929190610702565b60405180910390f35b610094600480360381019061008f919061054f565b6102df565b005b61009e610425565b6040516100ab919061069b565b60405180910390f35b600060608060008060008060008881526020019081526020016000206040518060a0016040529081600082015481526020016001820180546100f59061085e565b80601f01602080910402602001604051908101604052809291908181526020018280546101219061085e565b801561016e5780601f106101435761010080835404028352916020019161016e565b820191906000526020600020905b81548152906001019060200180831161015157829003601f168201915b505050505081526020016002820180546101879061085e565b80601f01602080910402602001604051908101604052809291908181526020018280546101b39061085e565b80156102005780601f106101d557610100808354040283529160200191610200565b820191906000526020600020905b8154815290600101906020018083116101e357829003601f168201915b505050505081526020016003820160009054906101000a900473ffffffffffffffffffffffffffffffffffffffff1673ffffffffffffffffffffffffffffffffffffffff1673ffffffffffffffffffffffffffffffffffffffff168152602001600482015481525050905060008160000151116102b2576040517f08c379a00000000000000000000000000000000000000000000000000000000081526004016102a99061067b565b60405180910390fd5b80600001518160200151826040015183606001518460800151955095509550955095505091939590929450565b600160008154809291906102f290610890565b91905055506040518060a0016040528060015481526020018381526020018281526020013373ffffffffffffffffffffffffffffffffffffffff16815260200142815250600080600154815260200190815260200160002060008201518160000155602082015181600101908051906020019061037092919061042f565b50604082015181600201908051906020019061038d92919061042f565b5060608201518160030160006101000a81548173ffffffffffffffffffffffffffffffffffffffff021916908373ffffffffffffffffffffffffffffffffffffffff160217905550608082015181600401559050507fc67f76e046dda5b143e307ade4d651f1c45d4937b88a5592255c70d817768e5a60015483334260405161041994939291906106b6565b60405180910390a15050565b6000600154905090565b82805461043b9061085e565b90600052602060002090601f01602090048101928261045d57600085556104a4565b82601f1061047657805160ff19168380011785556104a4565b828001600101855582156104a4579182015b828111156104a3578251825591602001919060010190610488565b5b5090506104b191906104b5565b5090565b5b808211156104ce5760008160009055506001016104b6565b5090565b60006104e56104e084610794565b610763565b9050828152602081018484840111156104fd57600080fd5b61050884828561081c565b509392505050565b600082601f83011261052157600080fd5b81356105318482602086016104d2565b91505092915050565b60008135905061054981610977565b92915050565b6000806040838503121561056257600080fd5b600083013567ffffffffffffffff81111561057c57600080fd5b61058885828601610510565b925050602083013567ffffffffffffffff8111156105a557600080fd5b6105b185828601610510565b9150509250929050565b6000602082840312156105cd57600080fd5b60006105db8482850161053a565b91505092915050565b6105ed816107e0565b82525050565b60006105fe826107c4565b61060881856107cf565b935061061881856020860161082b565b61062181610966565b840191505092915050565b60006106396015836107cf565b91507f5265636f726420646f6573206e6f7420657869737400000000000000000000006000830152602082019050919050565b61067581610812565b82525050565b600060208201905081810360008301526106948161062c565b9050919050565b60006020820190506106b0600083018461066c565b92915050565b60006080820190506106cb600083018761066c565b81810360208301526106dd81866105f3565b90506106ec60408301856105e4565b6106f9606083018461066c565b95945050505050565b600060a082019050610717600083018861066c565b818103602083015261072981876105f3565b9050818103604083015261073d81866105f3565b905061074c60608301856105e4565b610759608083018461066c565b9695505050505050565b6000604051905081810181811067ffffffffffffffff8211171561078a57610789610937565b5b8060405250919050565b600067ffffffffffffffff8211156107af576107ae610937565b5b601f19601f8301169050602081019050919050565b600081519050919050565b600082825260208201905092915050565b60006107eb826107f2565b9050919050565b600073ffffffffffffffffffffffffffffffffffffffff82169050919050565b6000819050919050565b82818337600083830152505050565b60005b8381101561084957808201518184015260208101905061082e565b83811115610858576000848401525b50505050565b6000600282049050600182168061087657607f821691505b6020821081141561088a57610889610908565b5b50919050565b600061089b82610812565b91507fffffffffffffffffffffffffffffffffffffffffffffffffffffffffffffffff8214156108ce576108cd6108d9565b5b600182019050919050565b7f4e487b7100000000000000000000000000000000000000000000000000000000600052601160045260246000fd5b7f4e487b7100000000000000000000000000000000000000000000000000000000600052602260045260246000fd5b7f4e487b7100000000000000000000000000000000000000000000000000000000600052604160045260246000fd5b6000601f19601f8301169050919050565b61098081610812565b811461098b57600080fd5b5056fea264697066735822122032fb005feed92046420eac778c2691d443bb59e6cb98c7a45ab5fed13323054164736f6c63430008000033",
  "immutableReferences": {},
  "source": "pragma solidity ^0.8.0;\r\n\r\ncontract MyContract {\r\n    struct Record {\r\n        uint256 id;\r\n        string title;\r\n        string content;\r\n        address owner;\r\n        uint256 timestamp;\r\n    }\r\n\r\n    mapping(uint256 => Record) private records;\r\n    uint256 private recordCount;\r\n\r\n    event RecordAdded(uint256 id, string title, address owner, uint256 timestamp);\r\n\r\n    function addRecord(string memory _title, string memory _content) public {\r\n        recordCount++;\r\n        records[recordCount] = Record(recordCount, _title, _content, msg.sender, block.timestamp);\r\n        emit RecordAdded(recordCount, _title, msg.sender, block.timestamp);\r\n    }\r\n\r\n    function getRecord(uint256 _id) public view returns (uint256, string memory, string memory, address, uint256) {\r\n        Record memory record = records[_id];\r\n        require(record.id > 0, \"Record does not exist\");\r\n        return (record.id, record.title, record.content, record.owner, record.timestamp);\r\n    }\r\n\r\n    function getRecordCount() public view returns (uint256) {\r\n        return recordCount;\r\n    }\r\n}",
  "sourcePath": "C:\\Users\\prevarshini\\my-truffle-project\\contracts\\MyContract.sol",
  "compiler": {
    "name": "solc",
    "version": "0.8.0+commit.c7dfd78e.Emscripten.clang"
  },
  "schemaVersion": "3.4.16",
  "updatedAt": "2024-07-13T15:23:35.182Z",
  "networkType": "ethereum",
  "devdoc": {
    "kind": "dev",
    "methods": {},
    "version": 1
  },
  "userdoc": {
    "kind": "user",
    "methods": {},
    "version": 1
  }
}